@341REMESSA        01COBRANCA   00000000000000PROVA DEV CNAB 444 AMOSTRA    001    0000000000 PROVA TECNICA                 120326      0000001                                                                                                                                                                                                                                                                                                             
10000001000010000000 10000000001PCONTROLE1                0000000005   DUPLICATA MERCANTIL      150425000000001500000099   N              00000000000000PAGADOR FAKE 1                                                                                 SAO PAULO      01310100        SP                                                                                                                        35240300000000000199550010000000011234567890
10000001000010000000 1000000000210CONTROLE2                0000000005   DUPLICATA MERCANTIL      200525000000002835000099   N              00000000000000PAGADOR FAKE 2                                                                                 SAO PAULO      01310100        SP                                                                                                                       35240300000000000199550010000000021234567891
10000001000010000000 100000000039CONTROLE3                0000000005   DUPLICATA MERCANTIL      100625000000004200000099   N              00000000000000PAGADOR FAKE 3                                                                                 SAO PAULO      01310100        SP                                                                                                                        35240300000000000199550010000000031234567892
10000001000010000000 100000000048CONTROLE4                0000000005   DUPLICATA MERCANTIL      050725000000000557500099   N              00000000000000PAGADOR FAKE 4                                                                                 SAO PAULO      01310100        SP                                                                                                                        35240300000000000199550010000000041234567893
10000001000010000000 100000000057CONTROLE5                0000000005   DUPLICATA MERCANTIL      220825000000009900000099   N              00000000000000PAGADOR FAKE 5                                                                                 SAO PAULO      01310100        SP                                                                                                                        35240300000000000199550010000000051234567894
10000001000010000000 100000000066CONTROLE6                0000000005   DUPLICATA MERCANTIL      180925000000001234000099   N              00000000000000PAGADOR FAKE 6                                                                                 SAO PAULO      01310100        SP                                                                                                                        35240300000000000199550010000000061234567895
10000001000010000000 100000000075CONTROLE7                0000000005   DUPLICATA MERCANTIL      121025000000000876000099   N              00000000000000PAGADOR FAKE 7                                                                                 SAO PAULO      01310100        SP                                                                                                                        35240300000000000199550010000000071234567896
10000001000010000000 100000000084CONTROLE8                0000000005   DUPLICATA MERCANTIL      301125000000004450000099   N              00000000000000PAGADOR FAKE 8                                                                                 SAO PAULO      01310100        SP                                                                                                                        35240300000000000199550010000000081234567897
10000001000010000000 100000000093CONTROLE9                0000000005   DUPLICATA MERCANTIL      200126000000003320000099   N              00000000000000PAGADOR FAKE 9                                                                                 SAO PAULO      01310100        SP                                                                                                                        35240300000000000199550010000000091234567898
10000001000010000000 100000000102CONTROLE10               0000000005   DUPLICATA MERCANTIL      150226000000001875000099   N              00000000000000PAGADOR FAKE 10                                                                                SAO PAULO      01310100        SP                                                                                                                        35240300000000000199550010000000101234567899
9                                                                                                                                                                                                                                                                                                                                                                                                       000012                                              
